{
	"contracts/StudentGrades.sol": {
		"StudentGrades": {
			"abi": [
				{
					"inputs": [
						{
							"internalType": "uint256",
							"name": "_subjectCode",
							"type": "uint256"
						},
						{
							"internalType": "string",
							"name": "_subjectName",
							"type": "string"
						},
						{
							"internalType": "uint8",
							"name": "_grade",
							"type": "uint8"
						}
					],
					"name": "addOrUpdateGrade",
					"outputs": [],
					"stateMutability": "nonpayable",
					"type": "function"
				},
				{
					"inputs": [
						{
							"internalType": "uint256",
							"name": "_subjectCode",
							"type": "uint256"
						}
					],
					"name": "getGrade",
					"outputs": [
						{
							"internalType": "string",
							"name": "",
							"type": "string"
						},
						{
							"internalType": "uint8",
							"name": "",
							"type": "uint8"
						}
					],
					"stateMutability": "view",
					"type": "function"
				},
				{
					"inputs": [
						{
							"internalType": "uint256",
							"name": "",
							"type": "uint256"
						}
					],
					"name": "grades",
					"outputs": [
						{
							"internalType": "string",
							"name": "subjectName",
							"type": "string"
						},
						{
							"internalType": "uint8",
							"name": "grade",
							"type": "uint8"
						}
					],
					"stateMutability": "view",
					"type": "function"
				}
			],
			"devdoc": {
				"kind": "dev",
				"methods": {},
				"version": 1
			},
			"evm": {
				"assembly": "    /* \"contracts/StudentGrades.sol\":63:604  contract StudentGrades {... */\n  mstore(0x40, 0x80)\n  callvalue\n  dup1\n  iszero\n  tag_1\n  jumpi\n  revert(0x00, 0x00)\ntag_1:\n  pop\n  dataSize(sub_0)\n  dup1\n  dataOffset(sub_0)\n  0x00\n  codecopy\n  0x00\n  return\nstop\n\nsub_0: assembly {\n        /* \"contracts/StudentGrades.sol\":63:604  contract StudentGrades {... */\n      mstore(0x40, 0x80)\n      callvalue\n      dup1\n      iszero\n      tag_1\n      jumpi\n      revert(0x00, 0x00)\n    tag_1:\n      pop\n      jumpi(tag_2, lt(calldatasize, 0x04))\n      shr(0xe0, calldataload(0x00))\n      dup1\n      0x386e6dca\n      eq\n      tag_3\n      jumpi\n      dup1\n      0x4b22fc62\n      eq\n      tag_4\n      jumpi\n      dup1\n      0xe1e0485e\n      eq\n      tag_5\n      jumpi\n    tag_2:\n      revert(0x00, 0x00)\n        /* \"contracts/StudentGrades.sol\":225:401  function addOrUpdateGrade(uint256 _subjectCode, string memory _subjectName, uint8 _grade) public virtual {... */\n    tag_3:\n      tag_6\n      0x04\n      dup1\n      calldatasize\n      sub\n      dup2\n      add\n      swap1\n      tag_7\n      swap2\n      swap1\n      tag_8\n      jump\t// in\n    tag_7:\n      tag_9\n      jump\t// in\n    tag_6:\n      stop\n        /* \"contracts/StudentGrades.sol\":175:216  mapping(uint256 => Subject) public grades */\n    tag_4:\n      tag_10\n      0x04\n      dup1\n      calldatasize\n      sub\n      dup2\n      add\n      swap1\n      tag_11\n      swap2\n      swap1\n      tag_12\n      jump\t// in\n    tag_11:\n      tag_13\n      jump\t// in\n    tag_10:\n      mload(0x40)\n      tag_14\n      swap3\n      swap2\n      swap1\n      tag_15\n      jump\t// in\n    tag_14:\n      mload(0x40)\n      dup1\n      swap2\n      sub\n      swap1\n      return\n        /* \"contracts/StudentGrades.sol\":409:601  function getGrade(uint256 _subjectCode) public view returns (string memory, uint8) {... */\n    tag_5:\n      tag_16\n      0x04\n      dup1\n      calldatasize\n      sub\n      dup2\n      add\n      swap1\n      tag_17\n      swap2\n      swap1\n      tag_12\n      jump\t// in\n    tag_17:\n      tag_18\n      jump\t// in\n    tag_16:\n      mload(0x40)\n      tag_19\n      swap3\n      swap2\n      swap1\n      tag_15\n      jump\t// in\n    tag_19:\n      mload(0x40)\n      dup1\n      swap2\n      sub\n      swap1\n      return\n        /* \"contracts/StudentGrades.sol\":225:401  function addOrUpdateGrade(uint256 _subjectCode, string memory _subjectName, uint8 _grade) public virtual {... */\n    tag_9:\n        /* \"contracts/StudentGrades.sol\":364:393  Subject(_subjectName, _grade) */\n      mload(0x40)\n      dup1\n      0x40\n      add\n      0x40\n      mstore\n      dup1\n        /* \"contracts/StudentGrades.sol\":372:384  _subjectName */\n      dup4\n        /* \"contracts/StudentGrades.sol\":364:393  Subject(_subjectName, _grade) */\n      dup2\n      mstore\n      0x20\n      add\n        /* \"contracts/StudentGrades.sol\":386:392  _grade */\n      dup3\n        /* \"contracts/StudentGrades.sol\":364:393  Subject(_subjectName, _grade) */\n      0xff\n      and\n      dup2\n      mstore\n      pop\n        /* \"contracts/StudentGrades.sol\":341:347  grades */\n      0x00\n        /* \"contracts/StudentGrades.sol\":341:361  grades[_subjectCode] */\n      0x00\n        /* \"contracts/StudentGrades.sol\":348:360  _subjectCode */\n      dup6\n        /* \"contracts/StudentGrades.sol\":341:361  grades[_subjectCode] */\n      dup2\n      mstore\n      0x20\n      add\n      swap1\n      dup2\n      mstore\n      0x20\n      add\n      0x00\n      keccak256\n        /* \"contracts/StudentGrades.sol\":341:393  grades[_subjectCode] = Subject(_subjectName, _grade) */\n      0x00\n      dup3\n      add\n      mload\n      dup2\n      0x00\n      add\n      swap1\n      dup2\n      tag_21\n      swap2\n      swap1\n      tag_22\n      jump\t// in\n    tag_21:\n      pop\n      0x20\n      dup3\n      add\n      mload\n      dup2\n      0x01\n      add\n      exp(0x0100, 0x00)\n      dup2\n      sload\n      dup2\n      0xff\n      mul\n      not\n      and\n      swap1\n      dup4\n      0xff\n      and\n      mul\n      or\n      swap1\n      sstore\n      pop\n      swap1\n      pop\n      pop\n        /* \"contracts/StudentGrades.sol\":225:401  function addOrUpdateGrade(uint256 _subjectCode, string memory _subjectName, uint8 _grade) public virtual {... */\n      pop\n      pop\n      pop\n      jump\t// out\n        /* \"contracts/StudentGrades.sol\":175:216  mapping(uint256 => Subject) public grades */\n    tag_13:\n      mstore(0x20, 0x00)\n      dup1\n      0x00\n      mstore\n      keccak256(0x00, 0x40)\n      0x00\n      swap2\n      pop\n      swap1\n      pop\n      dup1\n      0x00\n      add\n      dup1\n      sload\n      tag_23\n      swap1\n      tag_24\n      jump\t// in\n    tag_23:\n      dup1\n      0x1f\n      add\n      0x20\n      dup1\n      swap2\n      div\n      mul\n      0x20\n      add\n      mload(0x40)\n      swap1\n      dup2\n      add\n      0x40\n      mstore\n      dup1\n      swap3\n      swap2\n      swap1\n      dup2\n      dup2\n      mstore\n      0x20\n      add\n      dup3\n      dup1\n      sload\n      tag_25\n      swap1\n      tag_24\n      jump\t// in\n    tag_25:\n      dup1\n      iszero\n      tag_26\n      jumpi\n      dup1\n      0x1f\n      lt\n      tag_27\n      jumpi\n      0x0100\n      dup1\n      dup4\n      sload\n      div\n      mul\n      dup4\n      mstore\n      swap2\n      0x20\n      add\n      swap2\n      jump(tag_26)\n    tag_27:\n      dup3\n      add\n      swap2\n      swap1\n      0x00\n      mstore\n      keccak256(0x00, 0x20)\n      swap1\n    tag_28:\n      dup2\n      sload\n      dup2\n      mstore\n      swap1\n      0x01\n      add\n      swap1\n      0x20\n      add\n      dup1\n      dup4\n      gt\n      tag_28\n      jumpi\n      dup3\n      swap1\n      sub\n      0x1f\n      and\n      dup3\n      add\n      swap2\n    tag_26:\n      pop\n      pop\n      pop\n      pop\n      pop\n      swap1\n      dup1\n      0x01\n      add\n      0x00\n      swap1\n      sload\n      swap1\n      0x0100\n      exp\n      swap1\n      div\n      0xff\n      and\n      swap1\n      pop\n      dup3\n      jump\t// out\n        /* \"contracts/StudentGrades.sol\":409:601  function getGrade(uint256 _subjectCode) public view returns (string memory, uint8) {... */\n    tag_18:\n        /* \"contracts/StudentGrades.sol\":470:483  string memory */\n      0x60\n        /* \"contracts/StudentGrades.sol\":485:490  uint8 */\n      0x00\n        /* \"contracts/StudentGrades.sol\":503:522  Subject memory subj */\n      0x00\n        /* \"contracts/StudentGrades.sol\":525:531  grades */\n      0x00\n        /* \"contracts/StudentGrades.sol\":525:545  grades[_subjectCode] */\n      0x00\n        /* \"contracts/StudentGrades.sol\":532:544  _subjectCode */\n      dup6\n        /* \"contracts/StudentGrades.sol\":525:545  grades[_subjectCode] */\n      dup2\n      mstore\n      0x20\n      add\n      swap1\n      dup2\n      mstore\n      0x20\n      add\n      0x00\n      keccak256\n        /* \"contracts/StudentGrades.sol\":503:545  Subject memory subj = grades[_subjectCode] */\n      mload(0x40)\n      dup1\n      0x40\n      add\n      0x40\n      mstore\n      swap1\n      dup2\n      0x00\n      dup3\n      add\n      dup1\n      sload\n      tag_30\n      swap1\n      tag_24\n      jump\t// in\n    tag_30:\n      dup1\n      0x1f\n      add\n      0x20\n      dup1\n      swap2\n      div\n      mul\n      0x20\n      add\n      mload(0x40)\n      swap1\n      dup2\n      add\n      0x40\n      mstore\n      dup1\n      swap3\n      swap2\n      swap1\n      dup2\n      dup2\n      mstore\n      0x20\n      add\n      dup3\n      dup1\n      sload\n      tag_31\n      swap1\n      tag_24\n      jump\t// in\n    tag_31:\n      dup1\n      iszero\n      tag_32\n      jumpi\n      dup1\n      0x1f\n      lt\n      tag_33\n      jumpi\n      0x0100\n      dup1\n      dup4\n      sload\n      div\n      mul\n      dup4\n      mstore\n      swap2\n      0x20\n      add\n      swap2\n      jump(tag_32)\n    tag_33:\n      dup3\n      add\n      swap2\n      swap1\n      0x00\n      mstore\n      keccak256(0x00, 0x20)\n      swap1\n    tag_34:\n      dup2\n      sload\n      dup2\n      mstore\n      swap1\n      0x01\n      add\n      swap1\n      0x20\n      add\n      dup1\n      dup4\n      gt\n      tag_34\n      jumpi\n      dup3\n      swap1\n      sub\n      0x1f\n      and\n      dup3\n      add\n      swap2\n    tag_32:\n      pop\n      pop\n      pop\n      pop\n      pop\n      dup2\n      mstore\n      0x20\n      add\n      0x01\n      dup3\n      add\n      0x00\n      swap1\n      sload\n      swap1\n      0x0100\n      exp\n      swap1\n      div\n      0xff\n      and\n      0xff\n      and\n      0xff\n      and\n      dup2\n      mstore\n      pop\n      pop\n      swap1\n      pop\n        /* \"contracts/StudentGrades.sol\":564:568  subj */\n      dup1\n        /* \"contracts/StudentGrades.sol\":564:580  subj.subjectName */\n      0x00\n      add\n      mload\n        /* \"contracts/StudentGrades.sol\":582:586  subj */\n      dup2\n        /* \"contracts/StudentGrades.sol\":582:592  subj.grade */\n      0x20\n      add\n      mload\n        /* \"contracts/StudentGrades.sol\":556:593  return (subj.subjectName, subj.grade) */\n      swap3\n      pop\n      swap3\n      pop\n      pop\n        /* \"contracts/StudentGrades.sol\":409:601  function getGrade(uint256 _subjectCode) public view returns (string memory, uint8) {... */\n      swap2\n      pop\n      swap2\n      jump\t// out\n        /* \"#utility.yul\":7:82   */\n    tag_35:\n        /* \"#utility.yul\":40:46   */\n      0x00\n        /* \"#utility.yul\":73:75   */\n      0x40\n        /* \"#utility.yul\":67:76   */\n      mload\n        /* \"#utility.yul\":57:76   */\n      swap1\n      pop\n        /* \"#utility.yul\":7:82   */\n      swap1\n      jump\t// out\n        /* \"#utility.yul\":88:205   */\n    tag_36:\n        /* \"#utility.yul\":197:198   */\n      0x00\n        /* \"#utility.yul\":194:195   */\n      0x00\n        /* \"#utility.yul\":187:199   */\n      revert\n        /* \"#utility.yul\":211:328   */\n    tag_37:\n        /* \"#utility.yul\":320:321   */\n      0x00\n        /* \"#utility.yul\":317:318   */\n      0x00\n        /* \"#utility.yul\":310:322   */\n      revert\n        /* \"#utility.yul\":334:411   */\n    tag_38:\n        /* \"#utility.yul\":371:378   */\n      0x00\n        /* \"#utility.yul\":400:405   */\n      dup2\n        /* \"#utility.yul\":389:405   */\n      swap1\n      pop\n        /* \"#utility.yul\":334:411   */\n      swap2\n      swap1\n      pop\n      jump\t// out\n        /* \"#utility.yul\":417:539   */\n    tag_39:\n        /* \"#utility.yul\":490:514   */\n      tag_81\n        /* \"#utility.yul\":508:513   */\n      dup2\n        /* \"#utility.yul\":490:514   */\n      tag_38\n      jump\t// in\n    tag_81:\n        /* \"#utility.yul\":483:488   */\n      dup2\n        /* \"#utility.yul\":480:515   */\n      eq\n        /* \"#utility.yul\":470:533   */\n      tag_82\n      jumpi\n        /* \"#utility.yul\":529:530   */\n      0x00\n        /* \"#utility.yul\":526:527   */\n      0x00\n        /* \"#utility.yul\":519:531   */\n      revert\n        /* \"#utility.yul\":470:533   */\n    tag_82:\n        /* \"#utility.yul\":417:539   */\n      pop\n      jump\t// out\n        /* \"#utility.yul\":545:684   */\n    tag_40:\n        /* \"#utility.yul\":591:596   */\n      0x00\n        /* \"#utility.yul\":629:635   */\n      dup2\n        /* \"#utility.yul\":616:636   */\n      calldataload\n        /* \"#utility.yul\":607:636   */\n      swap1\n      pop\n        /* \"#utility.yul\":645:678   */\n      tag_84\n        /* \"#utility.yul\":672:677   */\n      dup2\n        /* \"#utility.yul\":645:678   */\n      tag_39\n      jump\t// in\n    tag_84:\n        /* \"#utility.yul\":545:684   */\n      swap3\n      swap2\n      pop\n      pop\n      jump\t// out\n        /* \"#utility.yul\":690:807   */\n    tag_41:\n        /* \"#utility.yul\":799:800   */\n      0x00\n        /* \"#utility.yul\":796:797   */\n      0x00\n        /* \"#utility.yul\":789:801   */\n      revert\n        /* \"#utility.yul\":813:930   */\n    tag_42:\n        /* \"#utility.yul\":922:923   */\n      0x00\n        /* \"#utility.yul\":919:920   */\n      0x00\n        /* \"#utility.yul\":912:924   */\n      revert\n        /* \"#utility.yul\":936:1038   */\n    tag_43:\n        /* \"#utility.yul\":977:983   */\n      0x00\n        /* \"#utility.yul\":1028:1030   */\n      0x1f\n        /* \"#utility.yul\":1024:1031   */\n      not\n        /* \"#utility.yul\":1019:1021   */\n      0x1f\n        /* \"#utility.yul\":1012:1017   */\n      dup4\n        /* \"#utility.yul\":1008:1022   */\n      add\n        /* \"#utility.yul\":1004:1032   */\n      and\n        /* \"#utility.yul\":994:1032   */\n      swap1\n      pop\n        /* \"#utility.yul\":936:1038   */\n      swap2\n      swap1\n      pop\n      jump\t// out\n        /* \"#utility.yul\":1044:1224   */\n    tag_44:\n        /* \"#utility.yul\":1092:1169   */\n      0x4e487b7100000000000000000000000000000000000000000000000000000000\n        /* \"#utility.yul\":1089:1090   */\n      0x00\n        /* \"#utility.yul\":1082:1170   */\n      mstore\n        /* \"#utility.yul\":1189:1193   */\n      0x41\n        /* \"#utility.yul\":1186:1187   */\n      0x04\n        /* \"#utility.yul\":1179:1194   */\n      mstore\n        /* \"#utility.yul\":1213:1217   */\n      0x24\n        /* \"#utility.yul\":1210:1211   */\n      0x00\n        /* \"#utility.yul\":1203:1218   */\n      revert\n        /* \"#utility.yul\":1230:1511   */\n    tag_45:\n        /* \"#utility.yul\":1313:1340   */\n      tag_90\n        /* \"#utility.yul\":1335:1339   */\n      dup3\n        /* \"#utility.yul\":1313:1340   */\n      tag_43\n      jump\t// in\n    tag_90:\n        /* \"#utility.yul\":1305:1311   */\n      dup2\n        /* \"#utility.yul\":1301:1341   */\n      add\n        /* \"#utility.yul\":1443:1449   */\n      dup2\n        /* \"#utility.yul\":1431:1441   */\n      dup2\n        /* \"#utility.yul\":1428:1450   */\n      lt\n        /* \"#utility.yul\":1407:1425   */\n      0xffffffffffffffff\n        /* \"#utility.yul\":1395:1405   */\n      dup3\n        /* \"#utility.yul\":1392:1426   */\n      gt\n        /* \"#utility.yul\":1389:1451   */\n      or\n        /* \"#utility.yul\":1386:1474   */\n      iszero\n      tag_91\n      jumpi\n        /* \"#utility.yul\":1454:1472   */\n      tag_92\n      tag_44\n      jump\t// in\n    tag_92:\n        /* \"#utility.yul\":1386:1474   */\n    tag_91:\n        /* \"#utility.yul\":1494:1504   */\n      dup1\n        /* \"#utility.yul\":1490:1492   */\n      0x40\n        /* \"#utility.yul\":1483:1505   */\n      mstore\n        /* \"#utility.yul\":1273:1511   */\n      pop\n        /* \"#utility.yul\":1230:1511   */\n      pop\n      pop\n      jump\t// out\n        /* \"#utility.yul\":1517:1646   */\n    tag_46:\n        /* \"#utility.yul\":1551:1557   */\n      0x00\n        /* \"#utility.yul\":1578:1598   */\n      tag_94\n      tag_35\n      jump\t// in\n    tag_94:\n        /* \"#utility.yul\":1568:1598   */\n      swap1\n      pop\n        /* \"#utility.yul\":1607:1640   */\n      tag_95\n        /* \"#utility.yul\":1635:1639   */\n      dup3\n        /* \"#utility.yul\":1627:1633   */\n      dup3\n        /* \"#utility.yul\":1607:1640   */\n      tag_45\n      jump\t// in\n    tag_95:\n        /* \"#utility.yul\":1517:1646   */\n      swap2\n      swap1\n      pop\n      jump\t// out\n        /* \"#utility.yul\":1652:1960   */\n    tag_47:\n        /* \"#utility.yul\":1714:1718   */\n      0x00\n        /* \"#utility.yul\":1804:1822   */\n      0xffffffffffffffff\n        /* \"#utility.yul\":1796:1802   */\n      dup3\n        /* \"#utility.yul\":1793:1823   */\n      gt\n        /* \"#utility.yul\":1790:1846   */\n      iszero\n      tag_97\n      jumpi\n        /* \"#utility.yul\":1826:1844   */\n      tag_98\n      tag_44\n      jump\t// in\n    tag_98:\n        /* \"#utility.yul\":1790:1846   */\n    tag_97:\n        /* \"#utility.yul\":1864:1893   */\n      tag_99\n        /* \"#utility.yul\":1886:1892   */\n      dup3\n        /* \"#utility.yul\":1864:1893   */\n      tag_43\n      jump\t// in\n    tag_99:\n        /* \"#utility.yul\":1856:1893   */\n      swap1\n      pop\n        /* \"#utility.yul\":1948:1952   */\n      0x20\n        /* \"#utility.yul\":1942:1946   */\n      dup2\n        /* \"#utility.yul\":1938:1953   */\n      add\n        /* \"#utility.yul\":1930:1953   */\n      swap1\n      pop\n        /* \"#utility.yul\":1652:1960   */\n      swap2\n      swap1\n      pop\n      jump\t// out\n        /* \"#utility.yul\":1966:2114   */\n    tag_48:\n        /* \"#utility.yul\":2064:2070   */\n      dup3\n        /* \"#utility.yul\":2059:2062   */\n      dup2\n        /* \"#utility.yul\":2054:2057   */\n      dup4\n        /* \"#utility.yul\":2041:2071   */\n      calldatacopy\n        /* \"#utility.yul\":2105:2106   */\n      0x00\n        /* \"#utility.yul\":2096:2102   */\n      dup4\n        /* \"#utility.yul\":2091:2094   */\n      dup4\n        /* \"#utility.yul\":2087:2103   */\n      add\n        /* \"#utility.yul\":2080:2107   */\n      mstore\n        /* \"#utility.yul\":1966:2114   */\n      pop\n      pop\n      pop\n      jump\t// out\n        /* \"#utility.yul\":2120:2545   */\n    tag_49:\n        /* \"#utility.yul\":2198:2203   */\n      0x00\n        /* \"#utility.yul\":2223:2289   */\n      tag_102\n        /* \"#utility.yul\":2239:2288   */\n      tag_103\n        /* \"#utility.yul\":2281:2287   */\n      dup5\n        /* \"#utility.yul\":2239:2288   */\n      tag_47\n      jump\t// in\n    tag_103:\n        /* \"#utility.yul\":2223:2289   */\n      tag_46\n      jump\t// in\n    tag_102:\n        /* \"#utility.yul\":2214:2289   */\n      swap1\n      pop\n        /* \"#utility.yul\":2312:2318   */\n      dup3\n        /* \"#utility.yul\":2305:2310   */\n      dup2\n        /* \"#utility.yul\":2298:2319   */\n      mstore\n        /* \"#utility.yul\":2350:2354   */\n      0x20\n        /* \"#utility.yul\":2343:2348   */\n      dup2\n        /* \"#utility.yul\":2339:2355   */\n      add\n        /* \"#utility.yul\":2388:2391   */\n      dup5\n        /* \"#utility.yul\":2379:2385   */\n      dup5\n        /* \"#utility.yul\":2374:2377   */\n      dup5\n        /* \"#utility.yul\":2370:2386   */\n      add\n        /* \"#utility.yul\":2367:2392   */\n      gt\n        /* \"#utility.yul\":2364:2476   */\n      iszero\n      tag_104\n      jumpi\n        /* \"#utility.yul\":2395:2474   */\n      tag_105\n      tag_42\n      jump\t// in\n    tag_105:\n        /* \"#utility.yul\":2364:2476   */\n    tag_104:\n        /* \"#utility.yul\":2485:2539   */\n      tag_106\n        /* \"#utility.yul\":2532:2538   */\n      dup5\n        /* \"#utility.yul\":2527:2530   */\n      dup3\n        /* \"#utility.yul\":2522:2525   */\n      dup6\n        /* \"#utility.yul\":2485:2539   */\n      tag_48\n      jump\t// in\n    tag_106:\n        /* \"#utility.yul\":2204:2545   */\n      pop\n        /* \"#utility.yul\":2120:2545   */\n      swap4\n      swap3\n      pop\n      pop\n      pop\n      jump\t// out\n        /* \"#utility.yul\":2565:2905   */\n    tag_50:\n        /* \"#utility.yul\":2621:2626   */\n      0x00\n        /* \"#utility.yul\":2670:2673   */\n      dup3\n        /* \"#utility.yul\":2663:2667   */\n      0x1f\n        /* \"#utility.yul\":2655:2661   */\n      dup4\n        /* \"#utility.yul\":2651:2668   */\n      add\n        /* \"#utility.yul\":2647:2674   */\n      slt\n        /* \"#utility.yul\":2637:2759   */\n      tag_108\n      jumpi\n        /* \"#utility.yul\":2678:2757   */\n      tag_109\n      tag_41\n      jump\t// in\n    tag_109:\n        /* \"#utility.yul\":2637:2759   */\n    tag_108:\n        /* \"#utility.yul\":2795:2801   */\n      dup2\n        /* \"#utility.yul\":2782:2802   */\n      calldataload\n        /* \"#utility.yul\":2820:2899   */\n      tag_110\n        /* \"#utility.yul\":2895:2898   */\n      dup5\n        /* \"#utility.yul\":2887:2893   */\n      dup3\n        /* \"#utility.yul\":2880:2884   */\n      0x20\n        /* \"#utility.yul\":2872:2878   */\n      dup7\n        /* \"#utility.yul\":2868:2885   */\n      add\n        /* \"#utility.yul\":2820:2899   */\n      tag_49\n      jump\t// in\n    tag_110:\n        /* \"#utility.yul\":2811:2899   */\n      swap2\n      pop\n        /* \"#utility.yul\":2627:2905   */\n      pop\n        /* \"#utility.yul\":2565:2905   */\n      swap3\n      swap2\n      pop\n      pop\n      jump\t// out\n        /* \"#utility.yul\":2911:2997   */\n    tag_51:\n        /* \"#utility.yul\":2946:2953   */\n      0x00\n        /* \"#utility.yul\":2986:2990   */\n      0xff\n        /* \"#utility.yul\":2979:2984   */\n      dup3\n        /* \"#utility.yul\":2975:2991   */\n      and\n        /* \"#utility.yul\":2964:2991   */\n      swap1\n      pop\n        /* \"#utility.yul\":2911:2997   */\n      swap2\n      swap1\n      pop\n      jump\t// out\n        /* \"#utility.yul\":3003:3121   */\n    tag_52:\n        /* \"#utility.yul\":3074:3096   */\n      tag_113\n        /* \"#utility.yul\":3090:3095   */\n      dup2\n        /* \"#utility.yul\":3074:3096   */\n      tag_51\n      jump\t// in\n    tag_113:\n        /* \"#utility.yul\":3067:3072   */\n      dup2\n        /* \"#utility.yul\":3064:3097   */\n      eq\n        /* \"#utility.yul\":3054:3115   */\n      tag_114\n      jumpi\n        /* \"#utility.yul\":3111:3112   */\n      0x00\n        /* \"#utility.yul\":3108:3109   */\n      0x00\n        /* \"#utility.yul\":3101:3113   */\n      revert\n        /* \"#utility.yul\":3054:3115   */\n    tag_114:\n        /* \"#utility.yul\":3003:3121   */\n      pop\n      jump\t// out\n        /* \"#utility.yul\":3127:3262   */\n    tag_53:\n        /* \"#utility.yul\":3171:3176   */\n      0x00\n        /* \"#utility.yul\":3209:3215   */\n      dup2\n        /* \"#utility.yul\":3196:3216   */\n      calldataload\n        /* \"#utility.yul\":3187:3216   */\n      swap1\n      pop\n        /* \"#utility.yul\":3225:3256   */\n      tag_116\n        /* \"#utility.yul\":3250:3255   */\n      dup2\n        /* \"#utility.yul\":3225:3256   */\n      tag_52\n      jump\t// in\n    tag_116:\n        /* \"#utility.yul\":3127:3262   */\n      swap3\n      swap2\n      pop\n      pop\n      jump\t// out\n        /* \"#utility.yul\":3268:4063   */\n    tag_8:\n        /* \"#utility.yul\":3353:3359   */\n      0x00\n        /* \"#utility.yul\":3361:3367   */\n      0x00\n        /* \"#utility.yul\":3369:3375   */\n      0x00\n        /* \"#utility.yul\":3418:3420   */\n      0x60\n        /* \"#utility.yul\":3406:3415   */\n      dup5\n        /* \"#utility.yul\":3397:3404   */\n      dup7\n        /* \"#utility.yul\":3393:3416   */\n      sub\n        /* \"#utility.yul\":3389:3421   */\n      slt\n        /* \"#utility.yul\":3386:3505   */\n      iszero\n      tag_118\n      jumpi\n        /* \"#utility.yul\":3424:3503   */\n      tag_119\n      tag_36\n      jump\t// in\n    tag_119:\n        /* \"#utility.yul\":3386:3505   */\n    tag_118:\n        /* \"#utility.yul\":3544:3545   */\n      0x00\n        /* \"#utility.yul\":3569:3622   */\n      tag_120\n        /* \"#utility.yul\":3614:3621   */\n      dup7\n        /* \"#utility.yul\":3605:3611   */\n      dup3\n        /* \"#utility.yul\":3594:3603   */\n      dup8\n        /* \"#utility.yul\":3590:3612   */\n      add\n        /* \"#utility.yul\":3569:3622   */\n      tag_40\n      jump\t// in\n    tag_120:\n        /* \"#utility.yul\":3559:3622   */\n      swap4\n      pop\n        /* \"#utility.yul\":3515:3632   */\n      pop\n        /* \"#utility.yul\":3699:3701   */\n      0x20\n        /* \"#utility.yul\":3688:3697   */\n      dup5\n        /* \"#utility.yul\":3684:3702   */\n      add\n        /* \"#utility.yul\":3671:3703   */\n      calldataload\n        /* \"#utility.yul\":3730:3748   */\n      0xffffffffffffffff\n        /* \"#utility.yul\":3722:3728   */\n      dup2\n        /* \"#utility.yul\":3719:3749   */\n      gt\n        /* \"#utility.yul\":3716:3833   */\n      iszero\n      tag_121\n      jumpi\n        /* \"#utility.yul\":3752:3831   */\n      tag_122\n      tag_37\n      jump\t// in\n    tag_122:\n        /* \"#utility.yul\":3716:3833   */\n    tag_121:\n        /* \"#utility.yul\":3857:3920   */\n      tag_123\n        /* \"#utility.yul\":3912:3919   */\n      dup7\n        /* \"#utility.yul\":3903:3909   */\n      dup3\n        /* \"#utility.yul\":3892:3901   */\n      dup8\n        /* \"#utility.yul\":3888:3910   */\n      add\n        /* \"#utility.yul\":3857:3920   */\n      tag_50\n      jump\t// in\n    tag_123:\n        /* \"#utility.yul\":3847:3920   */\n      swap3\n      pop\n        /* \"#utility.yul\":3642:3930   */\n      pop\n        /* \"#utility.yul\":3969:3971   */\n      0x40\n        /* \"#utility.yul\":3995:4046   */\n      tag_124\n        /* \"#utility.yul\":4038:4045   */\n      dup7\n        /* \"#utility.yul\":4029:4035   */\n      dup3\n        /* \"#utility.yul\":4018:4027   */\n      dup8\n        /* \"#utility.yul\":4014:4036   */\n      add\n        /* \"#utility.yul\":3995:4046   */\n      tag_53\n      jump\t// in\n    tag_124:\n        /* \"#utility.yul\":3985:4046   */\n      swap2\n      pop\n        /* \"#utility.yul\":3940:4056   */\n      pop\n        /* \"#utility.yul\":3268:4063   */\n      swap3\n      pop\n      swap3\n      pop\n      swap3\n      jump\t// out\n        /* \"#utility.yul\":4069:4398   */\n    tag_12:\n        /* \"#utility.yul\":4128:4134   */\n      0x00\n        /* \"#utility.yul\":4177:4179   */\n      0x20\n        /* \"#utility.yul\":4165:4174   */\n      dup3\n        /* \"#utility.yul\":4156:4163   */\n      dup5\n        /* \"#utility.yul\":4152:4175   */\n      sub\n        /* \"#utility.yul\":4148:4180   */\n      slt\n        /* \"#utility.yul\":4145:4264   */\n      iszero\n      tag_126\n      jumpi\n        /* \"#utility.yul\":4183:4262   */\n      tag_127\n      tag_36\n      jump\t// in\n    tag_127:\n        /* \"#utility.yul\":4145:4264   */\n    tag_126:\n        /* \"#utility.yul\":4303:4304   */\n      0x00\n        /* \"#utility.yul\":4328:4381   */\n      tag_128\n        /* \"#utility.yul\":4373:4380   */\n      dup5\n        /* \"#utility.yul\":4364:4370   */\n      dup3\n        /* \"#utility.yul\":4353:4362   */\n      dup6\n        /* \"#utility.yul\":4349:4371   */\n      add\n        /* \"#utility.yul\":4328:4381   */\n      tag_40\n      jump\t// in\n    tag_128:\n        /* \"#utility.yul\":4318:4381   */\n      swap2\n      pop\n        /* \"#utility.yul\":4274:4391   */\n      pop\n        /* \"#utility.yul\":4069:4398   */\n      swap3\n      swap2\n      pop\n      pop\n      jump\t// out\n        /* \"#utility.yul\":4404:4503   */\n    tag_54:\n        /* \"#utility.yul\":4456:4462   */\n      0x00\n        /* \"#utility.yul\":4490:4495   */\n      dup2\n        /* \"#utility.yul\":4484:4496   */\n      mload\n        /* \"#utility.yul\":4474:4496   */\n      swap1\n      pop\n        /* \"#utility.yul\":4404:4503   */\n      swap2\n      swap1\n      pop\n      jump\t// out\n        /* \"#utility.yul\":4509:4678   */\n    tag_55:\n        /* \"#utility.yul\":4593:4604   */\n      0x00\n        /* \"#utility.yul\":4627:4633   */\n      dup3\n        /* \"#utility.yul\":4622:4625   */\n      dup3\n        /* \"#utility.yul\":4615:4634   */\n      mstore\n        /* \"#utility.yul\":4667:4671   */\n      0x20\n        /* \"#utility.yul\":4662:4665   */\n      dup3\n        /* \"#utility.yul\":4658:4672   */\n      add\n        /* \"#utility.yul\":4643:4672   */\n      swap1\n      pop\n        /* \"#utility.yul\":4509:4678   */\n      swap3\n      swap2\n      pop\n      pop\n      jump\t// out\n        /* \"#utility.yul\":4684:4823   */\n    tag_56:\n        /* \"#utility.yul\":4773:4779   */\n      dup3\n        /* \"#utility.yul\":4768:4771   */\n      dup2\n        /* \"#utility.yul\":4763:4766   */\n      dup4\n        /* \"#utility.yul\":4757:4780   */\n      mcopy\n        /* \"#utility.yul\":4814:4815   */\n      0x00\n        /* \"#utility.yul\":4805:4811   */\n      dup4\n        /* \"#utility.yul\":4800:4803   */\n      dup4\n        /* \"#utility.yul\":4796:4812   */\n      add\n        /* \"#utility.yul\":4789:4816   */\n      mstore\n        /* \"#utility.yul\":4684:4823   */\n      pop\n      pop\n      pop\n      jump\t// out\n        /* \"#utility.yul\":4829:5206   */\n    tag_57:\n        /* \"#utility.yul\":4917:4920   */\n      0x00\n        /* \"#utility.yul\":4945:4984   */\n      tag_133\n        /* \"#utility.yul\":4978:4983   */\n      dup3\n        /* \"#utility.yul\":4945:4984   */\n      tag_54\n      jump\t// in\n    tag_133:\n        /* \"#utility.yul\":5000:5071   */\n      tag_134\n        /* \"#utility.yul\":5064:5070   */\n      dup2\n        /* \"#utility.yul\":5059:5062   */\n      dup6\n        /* \"#utility.yul\":5000:5071   */\n      tag_55\n      jump\t// in\n    tag_134:\n        /* \"#utility.yul\":4993:5071   */\n      swap4\n      pop\n        /* \"#utility.yul\":5080:5145   */\n      tag_135\n        /* \"#utility.yul\":5138:5144   */\n      dup2\n        /* \"#utility.yul\":5133:5136   */\n      dup6\n        /* \"#utility.yul\":5126:5130   */\n      0x20\n        /* \"#utility.yul\":5119:5124   */\n      dup7\n        /* \"#utility.yul\":5115:5131   */\n      add\n        /* \"#utility.yul\":5080:5145   */\n      tag_56\n      jump\t// in\n    tag_135:\n        /* \"#utility.yul\":5170:5199   */\n      tag_136\n        /* \"#utility.yul\":5192:5198   */\n      dup2\n        /* \"#utility.yul\":5170:5199   */\n      tag_43\n      jump\t// in\n    tag_136:\n        /* \"#utility.yul\":5165:5168   */\n      dup5\n        /* \"#utility.yul\":5161:5200   */\n      add\n        /* \"#utility.yul\":5154:5200   */\n      swap2\n      pop\n        /* \"#utility.yul\":4921:5206   */\n      pop\n        /* \"#utility.yul\":4829:5206   */\n      swap3\n      swap2\n      pop\n      pop\n      jump\t// out\n        /* \"#utility.yul\":5212:5324   */\n    tag_58:\n        /* \"#utility.yul\":5295:5317   */\n      tag_138\n        /* \"#utility.yul\":5311:5316   */\n      dup2\n        /* \"#utility.yul\":5295:5317   */\n      tag_51\n      jump\t// in\n    tag_138:\n        /* \"#utility.yul\":5290:5293   */\n      dup3\n        /* \"#utility.yul\":5283:5318   */\n      mstore\n        /* \"#utility.yul\":5212:5324   */\n      pop\n      pop\n      jump\t// out\n        /* \"#utility.yul\":5330:5745   */\n    tag_15:\n        /* \"#utility.yul\":5467:5471   */\n      0x00\n        /* \"#utility.yul\":5505:5507   */\n      0x40\n        /* \"#utility.yul\":5494:5503   */\n      dup3\n        /* \"#utility.yul\":5490:5508   */\n      add\n        /* \"#utility.yul\":5482:5508   */\n      swap1\n      pop\n        /* \"#utility.yul\":5554:5563   */\n      dup2\n        /* \"#utility.yul\":5548:5552   */\n      dup2\n        /* \"#utility.yul\":5544:5564   */\n      sub\n        /* \"#utility.yul\":5540:5541   */\n      0x00\n        /* \"#utility.yul\":5529:5538   */\n      dup4\n        /* \"#utility.yul\":5525:5542   */\n      add\n        /* \"#utility.yul\":5518:5565   */\n      mstore\n        /* \"#utility.yul\":5582:5660   */\n      tag_140\n        /* \"#utility.yul\":5655:5659   */\n      dup2\n        /* \"#utility.yul\":5646:5652   */\n      dup6\n        /* \"#utility.yul\":5582:5660   */\n      tag_57\n      jump\t// in\n    tag_140:\n        /* \"#utility.yul\":5574:5660   */\n      swap1\n      pop\n        /* \"#utility.yul\":5670:5738   */\n      tag_141\n        /* \"#utility.yul\":5734:5736   */\n      0x20\n        /* \"#utility.yul\":5723:5732   */\n      dup4\n        /* \"#utility.yul\":5719:5737   */\n      add\n        /* \"#utility.yul\":5710:5716   */\n      dup5\n        /* \"#utility.yul\":5670:5738   */\n      tag_58\n      jump\t// in\n    tag_141:\n        /* \"#utility.yul\":5330:5745   */\n      swap4\n      swap3\n      pop\n      pop\n      pop\n      jump\t// out\n        /* \"#utility.yul\":5751:5931   */\n    tag_59:\n        /* \"#utility.yul\":5799:5876   */\n      0x4e487b7100000000000000000000000000000000000000000000000000000000\n        /* \"#utility.yul\":5796:5797   */\n      0x00\n        /* \"#utility.yul\":5789:5877   */\n      mstore\n        /* \"#utility.yul\":5896:5900   */\n      0x22\n        /* \"#utility.yul\":5893:5894   */\n      0x04\n        /* \"#utility.yul\":5886:5901   */\n      mstore\n        /* \"#utility.yul\":5920:5924   */\n      0x24\n        /* \"#utility.yul\":5917:5918   */\n      0x00\n        /* \"#utility.yul\":5910:5925   */\n      revert\n        /* \"#utility.yul\":5937:6257   */\n    tag_24:\n        /* \"#utility.yul\":5981:5987   */\n      0x00\n        /* \"#utility.yul\":6018:6019   */\n      0x02\n        /* \"#utility.yul\":6012:6016   */\n      dup3\n        /* \"#utility.yul\":6008:6020   */\n      div\n        /* \"#utility.yul\":5998:6020   */\n      swap1\n      pop\n        /* \"#utility.yul\":6065:6066   */\n      0x01\n        /* \"#utility.yul\":6059:6063   */\n      dup3\n        /* \"#utility.yul\":6055:6067   */\n      and\n        /* \"#utility.yul\":6086:6104   */\n      dup1\n        /* \"#utility.yul\":6076:6157   */\n      tag_144\n      jumpi\n        /* \"#utility.yul\":6142:6146   */\n      0x7f\n        /* \"#utility.yul\":6134:6140   */\n      dup3\n        /* \"#utility.yul\":6130:6147   */\n      and\n        /* \"#utility.yul\":6120:6147   */\n      swap2\n      pop\n        /* \"#utility.yul\":6076:6157   */\n    tag_144:\n        /* \"#utility.yul\":6204:6206   */\n      0x20\n        /* \"#utility.yul\":6196:6202   */\n      dup3\n        /* \"#utility.yul\":6193:6207   */\n      lt\n        /* \"#utility.yul\":6173:6191   */\n      dup2\n        /* \"#utility.yul\":6170:6208   */\n      sub\n        /* \"#utility.yul\":6167:6251   */\n      tag_145\n      jumpi\n        /* \"#utility.yul\":6223:6241   */\n      tag_146\n      tag_59\n      jump\t// in\n    tag_146:\n        /* \"#utility.yul\":6167:6251   */\n    tag_145:\n        /* \"#utility.yul\":5988:6257   */\n      pop\n        /* \"#utility.yul\":5937:6257   */\n      swap2\n      swap1\n      pop\n      jump\t// out\n        /* \"#utility.yul\":6263:6404   */\n    tag_60:\n        /* \"#utility.yul\":6312:6316   */\n      0x00\n        /* \"#utility.yul\":6335:6338   */\n      dup2\n        /* \"#utility.yul\":6327:6338   */\n      swap1\n      pop\n        /* \"#utility.yul\":6358:6361   */\n      dup2\n        /* \"#utility.yul\":6355:6356   */\n      0x00\n        /* \"#utility.yul\":6348:6362   */\n      mstore\n        /* \"#utility.yul\":6392:6396   */\n      0x20\n        /* \"#utility.yul\":6389:6390   */\n      0x00\n        /* \"#utility.yul\":6379:6397   */\n      keccak256\n        /* \"#utility.yul\":6371:6397   */\n      swap1\n      pop\n        /* \"#utility.yul\":6263:6404   */\n      swap2\n      swap1\n      pop\n      jump\t// out\n        /* \"#utility.yul\":6410:6503   */\n    tag_61:\n        /* \"#utility.yul\":6447:6453   */\n      0x00\n        /* \"#utility.yul\":6494:6496   */\n      0x20\n        /* \"#utility.yul\":6489:6491   */\n      0x1f\n        /* \"#utility.yul\":6482:6487   */\n      dup4\n        /* \"#utility.yul\":6478:6492   */\n      add\n        /* \"#utility.yul\":6474:6497   */\n      div\n        /* \"#utility.yul\":6464:6497   */\n      swap1\n      pop\n        /* \"#utility.yul\":6410:6503   */\n      swap2\n      swap1\n      pop\n      jump\t// out\n        /* \"#utility.yul\":6509:6616   */\n    tag_62:\n        /* \"#utility.yul\":6553:6561   */\n      0x00\n        /* \"#utility.yul\":6603:6608   */\n      dup3\n        /* \"#utility.yul\":6597:6601   */\n      dup3\n        /* \"#utility.yul\":6593:6609   */\n      shl\n        /* \"#utility.yul\":6572:6609   */\n      swap1\n      pop\n        /* \"#utility.yul\":6509:6616   */\n      swap3\n      swap2\n      pop\n      pop\n      jump\t// out\n        /* \"#utility.yul\":6622:7015   */\n    tag_63:\n        /* \"#utility.yul\":6691:6697   */\n      0x00\n        /* \"#utility.yul\":6741:6742   */\n      0x08\n        /* \"#utility.yul\":6729:6739   */\n      dup4\n        /* \"#utility.yul\":6725:6743   */\n      mul\n        /* \"#utility.yul\":6764:6861   */\n      tag_151\n        /* \"#utility.yul\":6794:6860   */\n      0xffffffffffffffffffffffffffffffffffffffffffffffffffffffffffffffff\n        /* \"#utility.yul\":6783:6792   */\n      dup3\n        /* \"#utility.yul\":6764:6861   */\n      tag_62\n      jump\t// in\n    tag_151:\n        /* \"#utility.yul\":6882:6921   */\n      tag_152\n        /* \"#utility.yul\":6912:6920   */\n      dup7\n        /* \"#utility.yul\":6901:6910   */\n      dup4\n        /* \"#utility.yul\":6882:6921   */\n      tag_62\n      jump\t// in\n    tag_152:\n        /* \"#utility.yul\":6870:6921   */\n      swap6\n      pop\n        /* \"#utility.yul\":6954:6958   */\n      dup1\n        /* \"#utility.yul\":6950:6959   */\n      not\n        /* \"#utility.yul\":6943:6948   */\n      dup5\n        /* \"#utility.yul\":6939:6960   */\n      and\n        /* \"#utility.yul\":6930:6960   */\n      swap4\n      pop\n        /* \"#utility.yul\":7003:7007   */\n      dup1\n        /* \"#utility.yul\":6993:7001   */\n      dup7\n        /* \"#utility.yul\":6989:7008   */\n      and\n        /* \"#utility.yul\":6982:6987   */\n      dup5\n        /* \"#utility.yul\":6979:7009   */\n      or\n        /* \"#utility.yul\":6969:7009   */\n      swap3\n      pop\n        /* \"#utility.yul\":6698:7015   */\n      pop\n      pop\n        /* \"#utility.yul\":6622:7015   */\n      swap4\n      swap3\n      pop\n      pop\n      pop\n      jump\t// out\n        /* \"#utility.yul\":7021:7081   */\n    tag_64:\n        /* \"#utility.yul\":7049:7052   */\n      0x00\n        /* \"#utility.yul\":7070:7075   */\n      dup2\n        /* \"#utility.yul\":7063:7075   */\n      swap1\n      pop\n        /* \"#utility.yul\":7021:7081   */\n      swap2\n      swap1\n      pop\n      jump\t// out\n        /* \"#utility.yul\":7087:7229   */\n    tag_65:\n        /* \"#utility.yul\":7137:7146   */\n      0x00\n        /* \"#utility.yul\":7170:7223   */\n      tag_155\n        /* \"#utility.yul\":7188:7222   */\n      tag_156\n        /* \"#utility.yul\":7197:7221   */\n      tag_157\n        /* \"#utility.yul\":7215:7220   */\n      dup5\n        /* \"#utility.yul\":7197:7221   */\n      tag_38\n      jump\t// in\n    tag_157:\n        /* \"#utility.yul\":7188:7222   */\n      tag_64\n      jump\t// in\n    tag_156:\n        /* \"#utility.yul\":7170:7223   */\n      tag_38\n      jump\t// in\n    tag_155:\n        /* \"#utility.yul\":7157:7223   */\n      swap1\n      pop\n        /* \"#utility.yul\":7087:7229   */\n      swap2\n      swap1\n      pop\n      jump\t// out\n        /* \"#utility.yul\":7235:7310   */\n    tag_66:\n        /* \"#utility.yul\":7278:7281   */\n      0x00\n        /* \"#utility.yul\":7299:7304   */\n      dup2\n        /* \"#utility.yul\":7292:7304   */\n      swap1\n      pop\n        /* \"#utility.yul\":7235:7310   */\n      swap2\n      swap1\n      pop\n      jump\t// out\n        /* \"#utility.yul\":7316:7585   */\n    tag_67:\n        /* \"#utility.yul\":7426:7465   */\n      tag_160\n        /* \"#utility.yul\":7457:7464   */\n      dup4\n        /* \"#utility.yul\":7426:7465   */\n      tag_65\n      jump\t// in\n    tag_160:\n        /* \"#utility.yul\":7487:7578   */\n      tag_161\n        /* \"#utility.yul\":7536:7577   */\n      tag_162\n        /* \"#utility.yul\":7560:7576   */\n      dup3\n        /* \"#utility.yul\":7536:7577   */\n      tag_66\n      jump\t// in\n    tag_162:\n        /* \"#utility.yul\":7528:7534   */\n      dup5\n        /* \"#utility.yul\":7521:7525   */\n      dup5\n        /* \"#utility.yul\":7515:7526   */\n      sload\n        /* \"#utility.yul\":7487:7578   */\n      tag_63\n      jump\t// in\n    tag_161:\n        /* \"#utility.yul\":7481:7485   */\n      dup3\n        /* \"#utility.yul\":7474:7579   */\n      sstore\n        /* \"#utility.yul\":7392:7585   */\n      pop\n        /* \"#utility.yul\":7316:7585   */\n      pop\n      pop\n      pop\n      jump\t// out\n        /* \"#utility.yul\":7591:7664   */\n    tag_68:\n        /* \"#utility.yul\":7636:7639   */\n      0x00\n        /* \"#utility.yul\":7657:7658   */\n      0x00\n        /* \"#utility.yul\":7650:7658   */\n      swap1\n      pop\n        /* \"#utility.yul\":7591:7664   */\n      swap1\n      jump\t// out\n        /* \"#utility.yul\":7670:7859   */\n    tag_69:\n        /* \"#utility.yul\":7747:7779   */\n      tag_165\n      tag_68\n      jump\t// in\n    tag_165:\n        /* \"#utility.yul\":7788:7853   */\n      tag_166\n        /* \"#utility.yul\":7846:7852   */\n      dup2\n        /* \"#utility.yul\":7838:7844   */\n      dup5\n        /* \"#utility.yul\":7832:7836   */\n      dup5\n        /* \"#utility.yul\":7788:7853   */\n      tag_67\n      jump\t// in\n    tag_166:\n        /* \"#utility.yul\":7723:7859   */\n      pop\n        /* \"#utility.yul\":7670:7859   */\n      pop\n      pop\n      jump\t// out\n        /* \"#utility.yul\":7865:8051   */\n    tag_70:\n        /* \"#utility.yul\":7925:8045   */\n    tag_168:\n        /* \"#utility.yul\":7942:7945   */\n      dup2\n        /* \"#utility.yul\":7935:7940   */\n      dup2\n        /* \"#utility.yul\":7932:7946   */\n      lt\n        /* \"#utility.yul\":7925:8045   */\n      iszero\n      tag_170\n      jumpi\n        /* \"#utility.yul\":7996:8035   */\n      tag_171\n        /* \"#utility.yul\":8033:8034   */\n      0x00\n        /* \"#utility.yul\":8026:8031   */\n      dup3\n        /* \"#utility.yul\":7996:8035   */\n      tag_69\n      jump\t// in\n    tag_171:\n        /* \"#utility.yul\":7969:7970   */\n      0x01\n        /* \"#utility.yul\":7962:7967   */\n      dup2\n        /* \"#utility.yul\":7958:7971   */\n      add\n        /* \"#utility.yul\":7949:7971   */\n      swap1\n      pop\n        /* \"#utility.yul\":7925:8045   */\n      jump(tag_168)\n    tag_170:\n        /* \"#utility.yul\":7865:8051   */\n      pop\n      pop\n      jump\t// out\n        /* \"#utility.yul\":8057:8600   */\n    tag_71:\n        /* \"#utility.yul\":8158:8160   */\n      0x1f\n        /* \"#utility.yul\":8153:8156   */\n      dup3\n        /* \"#utility.yul\":8150:8161   */\n      gt\n        /* \"#utility.yul\":8147:8593   */\n      iszero\n      tag_173\n      jumpi\n        /* \"#utility.yul\":8192:8230   */\n      tag_174\n        /* \"#utility.yul\":8224:8229   */\n      dup2\n        /* \"#utility.yul\":8192:8230   */\n      tag_60\n      jump\t// in\n    tag_174:\n        /* \"#utility.yul\":8276:8305   */\n      tag_175\n        /* \"#utility.yul\":8294:8304   */\n      dup5\n        /* \"#utility.yul\":8276:8305   */\n      tag_61\n      jump\t// in\n    tag_175:\n        /* \"#utility.yul\":8266:8274   */\n      dup2\n        /* \"#utility.yul\":8262:8306   */\n      add\n        /* \"#utility.yul\":8459:8461   */\n      0x20\n        /* \"#utility.yul\":8447:8457   */\n      dup6\n        /* \"#utility.yul\":8444:8462   */\n      lt\n        /* \"#utility.yul\":8441:8490   */\n      iszero\n      tag_176\n      jumpi\n        /* \"#utility.yul\":8480:8488   */\n      dup2\n        /* \"#utility.yul\":8465:8488   */\n      swap1\n      pop\n        /* \"#utility.yul\":8441:8490   */\n    tag_176:\n        /* \"#utility.yul\":8503:8583   */\n      tag_177\n        /* \"#utility.yul\":8559:8581   */\n      tag_178\n        /* \"#utility.yul\":8577:8580   */\n      dup6\n        /* \"#utility.yul\":8559:8581   */\n      tag_61\n      jump\t// in\n    tag_178:\n        /* \"#utility.yul\":8549:8557   */\n      dup4\n        /* \"#utility.yul\":8545:8582   */\n      add\n        /* \"#utility.yul\":8532:8543   */\n      dup3\n        /* \"#utility.yul\":8503:8583   */\n      tag_70\n      jump\t// in\n    tag_177:\n        /* \"#utility.yul\":8162:8593   */\n      pop\n      pop\n        /* \"#utility.yul\":8147:8593   */\n    tag_173:\n        /* \"#utility.yul\":8057:8600   */\n      pop\n      pop\n      pop\n      jump\t// out\n        /* \"#utility.yul\":8606:8723   */\n    tag_72:\n        /* \"#utility.yul\":8660:8668   */\n      0x00\n        /* \"#utility.yul\":8710:8715   */\n      dup3\n        /* \"#utility.yul\":8704:8708   */\n      dup3\n        /* \"#utility.yul\":8700:8716   */\n      shr\n        /* \"#utility.yul\":8679:8716   */\n      swap1\n      pop\n        /* \"#utility.yul\":8606:8723   */\n      swap3\n      swap2\n      pop\n      pop\n      jump\t// out\n        /* \"#utility.yul\":8729:8898   */\n    tag_73:\n        /* \"#utility.yul\":8773:8779   */\n      0x00\n        /* \"#utility.yul\":8806:8857   */\n      tag_181\n        /* \"#utility.yul\":8854:8855   */\n      0x00\n        /* \"#utility.yul\":8850:8856   */\n      not\n        /* \"#utility.yul\":8842:8847   */\n      dup5\n        /* \"#utility.yul\":8839:8840   */\n      0x08\n        /* \"#utility.yul\":8835:8848   */\n      mul\n        /* \"#utility.yul\":8806:8857   */\n      tag_72\n      jump\t// in\n    tag_181:\n        /* \"#utility.yul\":8802:8858   */\n      not\n        /* \"#utility.yul\":8887:8891   */\n      dup1\n        /* \"#utility.yul\":8881:8885   */\n      dup4\n        /* \"#utility.yul\":8877:8892   */\n      and\n        /* \"#utility.yul\":8867:8892   */\n      swap2\n      pop\n        /* \"#utility.yul\":8780:8898   */\n      pop\n        /* \"#utility.yul\":8729:8898   */\n      swap3\n      swap2\n      pop\n      pop\n      jump\t// out\n        /* \"#utility.yul\":8903:9198   */\n    tag_74:\n        /* \"#utility.yul\":8979:8983   */\n      0x00\n        /* \"#utility.yul\":9125:9154   */\n      tag_183\n        /* \"#utility.yul\":9150:9153   */\n      dup4\n        /* \"#utility.yul\":9144:9148   */\n      dup4\n        /* \"#utility.yul\":9125:9154   */\n      tag_73\n      jump\t// in\n    tag_183:\n        /* \"#utility.yul\":9117:9154   */\n      swap2\n      pop\n        /* \"#utility.yul\":9187:9190   */\n      dup3\n        /* \"#utility.yul\":9184:9185   */\n      0x02\n        /* \"#utility.yul\":9180:9191   */\n      mul\n        /* \"#utility.yul\":9174:9178   */\n      dup3\n        /* \"#utility.yul\":9171:9192   */\n      or\n        /* \"#utility.yul\":9163:9192   */\n      swap1\n      pop\n        /* \"#utility.yul\":8903:9198   */\n      swap3\n      swap2\n      pop\n      pop\n      jump\t// out\n        /* \"#utility.yul\":9203:10598   */\n    tag_22:\n        /* \"#utility.yul\":9320:9357   */\n      tag_185\n        /* \"#utility.yul\":9353:9356   */\n      dup3\n        /* \"#utility.yul\":9320:9357   */\n      tag_54\n      jump\t// in\n    tag_185:\n        /* \"#utility.yul\":9422:9440   */\n      0xffffffffffffffff\n        /* \"#utility.yul\":9414:9420   */\n      dup2\n        /* \"#utility.yul\":9411:9441   */\n      gt\n        /* \"#utility.yul\":9408:9464   */\n      iszero\n      tag_186\n      jumpi\n        /* \"#utility.yul\":9444:9462   */\n      tag_187\n      tag_44\n      jump\t// in\n    tag_187:\n        /* \"#utility.yul\":9408:9464   */\n    tag_186:\n        /* \"#utility.yul\":9488:9526   */\n      tag_188\n        /* \"#utility.yul\":9520:9524   */\n      dup3\n        /* \"#utility.yul\":9514:9525   */\n      sload\n        /* \"#utility.yul\":9488:9526   */\n      tag_24\n      jump\t// in\n    tag_188:\n        /* \"#utility.yul\":9573:9640   */\n      tag_189\n        /* \"#utility.yul\":9633:9639   */\n      dup3\n        /* \"#utility.yul\":9625:9631   */\n      dup3\n        /* \"#utility.yul\":9619:9623   */\n      dup6\n        /* \"#utility.yul\":9573:9640   */\n      tag_71\n      jump\t// in\n    tag_189:\n        /* \"#utility.yul\":9667:9668   */\n      0x00\n        /* \"#utility.yul\":9691:9695   */\n      0x20\n        /* \"#utility.yul\":9678:9695   */\n      swap1\n      pop\n        /* \"#utility.yul\":9723:9725   */\n      0x1f\n        /* \"#utility.yul\":9715:9721   */\n      dup4\n        /* \"#utility.yul\":9712:9726   */\n      gt\n        /* \"#utility.yul\":9740:9741   */\n      0x01\n        /* \"#utility.yul\":9735:10353   */\n      dup2\n      eq\n      tag_191\n      jumpi\n        /* \"#utility.yul\":10397:10398   */\n      0x00\n        /* \"#utility.yul\":10414:10420   */\n      dup5\n        /* \"#utility.yul\":10411:10488   */\n      iszero\n      tag_192\n      jumpi\n        /* \"#utility.yul\":10463:10472   */\n      dup3\n        /* \"#utility.yul\":10458:10461   */\n      dup8\n        /* \"#utility.yul\":10454:10473   */\n      add\n        /* \"#utility.yul\":10448:10474   */\n      mload\n        /* \"#utility.yul\":10439:10474   */\n      swap1\n      pop\n        /* \"#utility.yul\":10411:10488   */\n    tag_192:\n        /* \"#utility.yul\":10514:10581   */\n      tag_193\n        /* \"#utility.yul\":10574:10580   */\n      dup6\n        /* \"#utility.yul\":10567:10572   */\n      dup3\n        /* \"#utility.yul\":10514:10581   */\n      tag_74\n      jump\t// in\n    tag_193:\n        /* \"#utility.yul\":10508:10512   */\n      dup7\n        /* \"#utility.yul\":10501:10582   */\n      sstore\n        /* \"#utility.yul\":10370:10592   */\n      pop\n        /* \"#utility.yul\":9705:10592   */\n      jump(tag_190)\n        /* \"#utility.yul\":9735:10353   */\n    tag_191:\n        /* \"#utility.yul\":9787:9791   */\n      0x1f\n        /* \"#utility.yul\":9783:9792   */\n      not\n        /* \"#utility.yul\":9775:9781   */\n      dup5\n        /* \"#utility.yul\":9771:9793   */\n      and\n        /* \"#utility.yul\":9821:9858   */\n      tag_194\n        /* \"#utility.yul\":9853:9857   */\n      dup7\n        /* \"#utility.yul\":9821:9858   */\n      tag_60\n      jump\t// in\n    tag_194:\n        /* \"#utility.yul\":9880:9881   */\n      0x00\n        /* \"#utility.yul\":9894:10102   */\n    tag_195:\n        /* \"#utility.yul\":9908:9915   */\n      dup3\n        /* \"#utility.yul\":9905:9906   */\n      dup2\n        /* \"#utility.yul\":9902:9916   */\n      lt\n        /* \"#utility.yul\":9894:10102   */\n      iszero\n      tag_197\n      jumpi\n        /* \"#utility.yul\":9987:9996   */\n      dup5\n        /* \"#utility.yul\":9982:9985   */\n      dup10\n        /* \"#utility.yul\":9978:9997   */\n      add\n        /* \"#utility.yul\":9972:9998   */\n      mload\n        /* \"#utility.yul\":9964:9970   */\n      dup3\n        /* \"#utility.yul\":9957:9999   */\n      sstore\n        /* \"#utility.yul\":10038:10039   */\n      0x01\n        /* \"#utility.yul\":10030:10036   */\n      dup3\n        /* \"#utility.yul\":10026:10040   */\n      add\n        /* \"#utility.yul\":10016:10040   */\n      swap2\n      pop\n        /* \"#utility.yul\":10085:10087   */\n      0x20\n        /* \"#utility.yul\":10074:10083   */\n      dup6\n        /* \"#utility.yul\":10070:10088   */\n      add\n        /* \"#utility.yul\":10057:10088   */\n      swap5\n      pop\n        /* \"#utility.yul\":9931:9935   */\n      0x20\n        /* \"#utility.yul\":9928:9929   */\n      dup2\n        /* \"#utility.yul\":9924:9936   */\n      add\n        /* \"#utility.yul\":9919:9936   */\n      swap1\n      pop\n        /* \"#utility.yul\":9894:10102   */\n      jump(tag_195)\n    tag_197:\n        /* \"#utility.yul\":10130:10136   */\n      dup7\n        /* \"#utility.yul\":10121:10128   */\n      dup4\n        /* \"#utility.yul\":10118:10137   */\n      lt\n        /* \"#utility.yul\":10115:10294   */\n      iszero\n      tag_198\n      jumpi\n        /* \"#utility.yul\":10188:10197   */\n      dup5\n        /* \"#utility.yul\":10183:10186   */\n      dup10\n        /* \"#utility.yul\":10179:10198   */\n      add\n        /* \"#utility.yul\":10173:10199   */\n      mload\n        /* \"#utility.yul\":10231:10279   */\n      tag_199\n        /* \"#utility.yul\":10273:10277   */\n      0x1f\n        /* \"#utility.yul\":10265:10271   */\n      dup10\n        /* \"#utility.yul\":10261:10278   */\n      and\n        /* \"#utility.yul\":10250:10259   */\n      dup3\n        /* \"#utility.yul\":10231:10279   */\n      tag_73\n      jump\t// in\n    tag_199:\n        /* \"#utility.yul\":10223:10229   */\n      dup4\n        /* \"#utility.yul\":10216:10280   */\n      sstore\n        /* \"#utility.yul\":10138:10294   */\n      pop\n        /* \"#utility.yul\":10115:10294   */\n    tag_198:\n        /* \"#utility.yul\":10340:10341   */\n      0x01\n        /* \"#utility.yul\":10336:10337   */\n      0x02\n        /* \"#utility.yul\":10328:10334   */\n      dup9\n        /* \"#utility.yul\":10324:10338   */\n      mul\n        /* \"#utility.yul\":10320:10342   */\n      add\n        /* \"#utility.yul\":10314:10318   */\n      dup9\n        /* \"#utility.yul\":10307:10343   */\n      sstore\n        /* \"#utility.yul\":9742:10353   */\n      pop\n      pop\n      pop\n        /* \"#utility.yul\":9705:10592   */\n    tag_190:\n      pop\n        /* \"#utility.yul\":9295:10598   */\n      pop\n      pop\n      pop\n        /* \"#utility.yul\":9203:10598   */\n      pop\n      pop\n      jump\t// out\n\n    auxdata: 0xa26469706673582212208ea73144d1a7cee036f10a847300782f1016d6ea0cb4a20cfb7fc10fd044939864736f6c634300081f0033\n}\n",
				"bytecode": {
					"linkReferences": {},
					"object": "6080604052348015600e575f5ffd5b506108a18061001c5f395ff3fe608060405234801561000f575f5ffd5b506004361061003f575f3560e01c8063386e6dca146100435780634b22fc621461005f578063e1e0485e14610090575b5f5ffd5b61005d6004803603810190610058919061046b565b6100c1565b005b610079600480360381019061007491906104d7565b610125565b604051610087929190610571565b60405180910390f35b6100aa60048036038101906100a591906104d7565b6101d6565b6040516100b8929190610571565b60405180910390f35b60405180604001604052808381526020018260ff168152505f5f8581526020019081526020015f205f820151815f0190816100fc919061079c565b506020820151816001015f6101000a81548160ff021916908360ff160217905550905050505050565b5f602052805f5260405f205f91509050805f018054610143906105cc565b80601f016020809104026020016040519081016040528092919081815260200182805461016f906105cc565b80156101ba5780601f10610191576101008083540402835291602001916101ba565b820191905f5260205f20905b81548152906001019060200180831161019d57829003601f168201915b505050505090806001015f9054906101000a900460ff16905082565b60605f5f5f5f8581526020019081526020015f206040518060400160405290815f82018054610204906105cc565b80601f0160208091040260200160405190810160405280929190818152602001828054610230906105cc565b801561027b5780601f106102525761010080835404028352916020019161027b565b820191905f5260205f20905b81548152906001019060200180831161025e57829003601f168201915b50505050508152602001600182015f9054906101000a900460ff1660ff1660ff16815250509050805f015181602001519250925050915091565b5f604051905090565b5f5ffd5b5f5ffd5b5f819050919050565b6102d8816102c6565b81146102e2575f5ffd5b50565b5f813590506102f3816102cf565b92915050565b5f5ffd5b5f5ffd5b5f601f19601f8301169050919050565b7f4e487b71000000000000000000000000000000000000000000000000000000005f52604160045260245ffd5b61034782610301565b810181811067ffffffffffffffff8211171561036657610365610311565b5b80604052505050565b5f6103786102b5565b9050610384828261033e565b919050565b5f67ffffffffffffffff8211156103a3576103a2610311565b5b6103ac82610301565b9050602081019050919050565b828183375f83830152505050565b5f6103d96103d484610389565b61036f565b9050828152602081018484840111156103f5576103f46102fd565b5b6104008482856103b9565b509392505050565b5f82601f83011261041c5761041b6102f9565b5b813561042c8482602086016103c7565b91505092915050565b5f60ff82169050919050565b61044a81610435565b8114610454575f5ffd5b50565b5f8135905061046581610441565b92915050565b5f5f5f60608486031215610482576104816102be565b5b5f61048f868287016102e5565b935050602084013567ffffffffffffffff8111156104b0576104af6102c2565b5b6104bc86828701610408565b92505060406104cd86828701610457565b9150509250925092565b5f602082840312156104ec576104eb6102be565b5b5f6104f9848285016102e5565b91505092915050565b5f81519050919050565b5f82825260208201905092915050565b8281835e5f83830152505050565b5f61053482610502565b61053e818561050c565b935061054e81856020860161051c565b61055781610301565b840191505092915050565b61056b81610435565b82525050565b5f6040820190508181035f830152610589818561052a565b90506105986020830184610562565b9392505050565b7f4e487b71000000000000000000000000000000000000000000000000000000005f52602260045260245ffd5b5f60028204905060018216806105e357607f821691505b6020821081036105f6576105f561059f565b5b50919050565b5f819050815f5260205f209050919050565b5f6020601f8301049050919050565b5f82821b905092915050565b5f600883026106587fffffffffffffffffffffffffffffffffffffffffffffffffffffffffffffffff8261061d565b610662868361061d565b95508019841693508086168417925050509392505050565b5f819050919050565b5f61069d610698610693846102c6565b61067a565b6102c6565b9050919050565b5f819050919050565b6106b683610683565b6106ca6106c2826106a4565b848454610629565b825550505050565b5f5f905090565b6106e16106d2565b6106ec8184846106ad565b505050565b5b8181101561070f576107045f826106d9565b6001810190506106f2565b5050565b601f82111561075457610725816105fc565b61072e8461060e565b8101602085101561073d578190505b6107516107498561060e565b8301826106f1565b50505b505050565b5f82821c905092915050565b5f6107745f1984600802610759565b1980831691505092915050565b5f61078c8383610765565b9150826002028217905092915050565b6107a582610502565b67ffffffffffffffff8111156107be576107bd610311565b5b6107c882546105cc565b6107d3828285610713565b5f60209050601f831160018114610804575f84156107f2578287015190505b6107fc8582610781565b865550610863565b601f198416610812866105fc565b5f5b8281101561083957848901518255600182019150602085019450602081019050610814565b868310156108565784890151610852601f891682610765565b8355505b6001600288020188555050505b50505050505056fea26469706673582212208ea73144d1a7cee036f10a847300782f1016d6ea0cb4a20cfb7fc10fd044939864736f6c634300081f0033",
					"opcodes": "PUSH1 0x80 PUSH1 0x40 MSTORE CALLVALUE DUP1 ISZERO PUSH1 0xE JUMPI PUSH0 PUSH0 REVERT JUMPDEST POP PUSH2 0x8A1 DUP1 PUSH2 0x1C PUSH0 CODECOPY PUSH0 RETURN INVALID PUSH1 0x80 PUSH1 0x40 MSTORE CALLVALUE DUP1 ISZERO PUSH2 0xF JUMPI PUSH0 PUSH0 REVERT JUMPDEST POP PUSH1 0x4 CALLDATASIZE LT PUSH2 0x3F JUMPI PUSH0 CALLDATALOAD PUSH1 0xE0 SHR DUP1 PUSH4 0x386E6DCA EQ PUSH2 0x43 JUMPI DUP1 PUSH4 0x4B22FC62 EQ PUSH2 0x5F JUMPI DUP1 PUSH4 0xE1E0485E EQ PUSH2 0x90 JUMPI JUMPDEST PUSH0 PUSH0 REVERT JUMPDEST PUSH2 0x5D PUSH1 0x4 DUP1 CALLDATASIZE SUB DUP2 ADD SWAP1 PUSH2 0x58 SWAP2 SWAP1 PUSH2 0x46B JUMP JUMPDEST PUSH2 0xC1 JUMP JUMPDEST STOP JUMPDEST PUSH2 0x79 PUSH1 0x4 DUP1 CALLDATASIZE SUB DUP2 ADD SWAP1 PUSH2 0x74 SWAP2 SWAP1 PUSH2 0x4D7 JUMP JUMPDEST PUSH2 0x125 JUMP JUMPDEST PUSH1 0x40 MLOAD PUSH2 0x87 SWAP3 SWAP2 SWAP1 PUSH2 0x571 JUMP JUMPDEST PUSH1 0x40 MLOAD DUP1 SWAP2 SUB SWAP1 RETURN JUMPDEST PUSH2 0xAA PUSH1 0x4 DUP1 CALLDATASIZE SUB DUP2 ADD SWAP1 PUSH2 0xA5 SWAP2 SWAP1 PUSH2 0x4D7 JUMP JUMPDEST PUSH2 0x1D6 JUMP JUMPDEST PUSH1 0x40 MLOAD PUSH2 0xB8 SWAP3 SWAP2 SWAP1 PUSH2 0x571 JUMP JUMPDEST PUSH1 0x40 MLOAD DUP1 SWAP2 SUB SWAP1 RETURN JUMPDEST PUSH1 0x40 MLOAD DUP1 PUSH1 0x40 ADD PUSH1 0x40 MSTORE DUP1 DUP4 DUP2 MSTORE PUSH1 0x20 ADD DUP3 PUSH1 0xFF AND DUP2 MSTORE POP PUSH0 PUSH0 DUP6 DUP2 MSTORE PUSH1 0x20 ADD SWAP1 DUP2 MSTORE PUSH1 0x20 ADD PUSH0 KECCAK256 PUSH0 DUP3 ADD MLOAD DUP2 PUSH0 ADD SWAP1 DUP2 PUSH2 0xFC SWAP2 SWAP1 PUSH2 0x79C JUMP JUMPDEST POP PUSH1 0x20 DUP3 ADD MLOAD DUP2 PUSH1 0x1 ADD PUSH0 PUSH2 0x100 EXP DUP2 SLOAD DUP2 PUSH1 0xFF MUL NOT AND SWAP1 DUP4 PUSH1 0xFF AND MUL OR SWAP1 SSTORE POP SWAP1 POP POP POP POP POP JUMP JUMPDEST PUSH0 PUSH1 0x20 MSTORE DUP1 PUSH0 MSTORE PUSH1 0x40 PUSH0 KECCAK256 PUSH0 SWAP2 POP SWAP1 POP DUP1 PUSH0 ADD DUP1 SLOAD PUSH2 0x143 SWAP1 PUSH2 0x5CC JUMP JUMPDEST DUP1 PUSH1 0x1F ADD PUSH1 0x20 DUP1 SWAP2 DIV MUL PUSH1 0x20 ADD PUSH1 0x40 MLOAD SWAP1 DUP2 ADD PUSH1 0x40 MSTORE DUP1 SWAP3 SWAP2 SWAP1 DUP2 DUP2 MSTORE PUSH1 0x20 ADD DUP3 DUP1 SLOAD PUSH2 0x16F SWAP1 PUSH2 0x5CC JUMP JUMPDEST DUP1 ISZERO PUSH2 0x1BA JUMPI DUP1 PUSH1 0x1F LT PUSH2 0x191 JUMPI PUSH2 0x100 DUP1 DUP4 SLOAD DIV MUL DUP4 MSTORE SWAP2 PUSH1 0x20 ADD SWAP2 PUSH2 0x1BA JUMP JUMPDEST DUP3 ADD SWAP2 SWAP1 PUSH0 MSTORE PUSH1 0x20 PUSH0 KECCAK256 SWAP1 JUMPDEST DUP2 SLOAD DUP2 MSTORE SWAP1 PUSH1 0x1 ADD SWAP1 PUSH1 0x20 ADD DUP1 DUP4 GT PUSH2 0x19D JUMPI DUP3 SWAP1 SUB PUSH1 0x1F AND DUP3 ADD SWAP2 JUMPDEST POP POP POP POP POP SWAP1 DUP1 PUSH1 0x1 ADD PUSH0 SWAP1 SLOAD SWAP1 PUSH2 0x100 EXP SWAP1 DIV PUSH1 0xFF AND SWAP1 POP DUP3 JUMP JUMPDEST PUSH1 0x60 PUSH0 PUSH0 PUSH0 PUSH0 DUP6 DUP2 MSTORE PUSH1 0x20 ADD SWAP1 DUP2 MSTORE PUSH1 0x20 ADD PUSH0 KECCAK256 PUSH1 0x40 MLOAD DUP1 PUSH1 0x40 ADD PUSH1 0x40 MSTORE SWAP1 DUP2 PUSH0 DUP3 ADD DUP1 SLOAD PUSH2 0x204 SWAP1 PUSH2 0x5CC JUMP JUMPDEST DUP1 PUSH1 0x1F ADD PUSH1 0x20 DUP1 SWAP2 DIV MUL PUSH1 0x20 ADD PUSH1 0x40 MLOAD SWAP1 DUP2 ADD PUSH1 0x40 MSTORE DUP1 SWAP3 SWAP2 SWAP1 DUP2 DUP2 MSTORE PUSH1 0x20 ADD DUP3 DUP1 SLOAD PUSH2 0x230 SWAP1 PUSH2 0x5CC JUMP JUMPDEST DUP1 ISZERO PUSH2 0x27B JUMPI DUP1 PUSH1 0x1F LT PUSH2 0x252 JUMPI PUSH2 0x100 DUP1 DUP4 SLOAD DIV MUL DUP4 MSTORE SWAP2 PUSH1 0x20 ADD SWAP2 PUSH2 0x27B JUMP JUMPDEST DUP3 ADD SWAP2 SWAP1 PUSH0 MSTORE PUSH1 0x20 PUSH0 KECCAK256 SWAP1 JUMPDEST DUP2 SLOAD DUP2 MSTORE SWAP1 PUSH1 0x1 ADD SWAP1 PUSH1 0x20 ADD DUP1 DUP4 GT PUSH2 0x25E JUMPI DUP3 SWAP1 SUB PUSH1 0x1F AND DUP3 ADD SWAP2 JUMPDEST POP POP POP POP POP DUP2 MSTORE PUSH1 0x20 ADD PUSH1 0x1 DUP3 ADD PUSH0 SWAP1 SLOAD SWAP1 PUSH2 0x100 EXP SWAP1 DIV PUSH1 0xFF AND PUSH1 0xFF AND PUSH1 0xFF AND DUP2 MSTORE POP POP SWAP1 POP DUP1 PUSH0 ADD MLOAD DUP2 PUSH1 0x20 ADD MLOAD SWAP3 POP SWAP3 POP POP SWAP2 POP SWAP2 JUMP JUMPDEST PUSH0 PUSH1 0x40 MLOAD SWAP1 POP SWAP1 JUMP JUMPDEST PUSH0 PUSH0 REVERT JUMPDEST PUSH0 PUSH0 REVERT JUMPDEST PUSH0 DUP2 SWAP1 POP SWAP2 SWAP1 POP JUMP JUMPDEST PUSH2 0x2D8 DUP2 PUSH2 0x2C6 JUMP JUMPDEST DUP2 EQ PUSH2 0x2E2 JUMPI PUSH0 PUSH0 REVERT JUMPDEST POP JUMP JUMPDEST PUSH0 DUP2 CALLDATALOAD SWAP1 POP PUSH2 0x2F3 DUP2 PUSH2 0x2CF JUMP JUMPDEST SWAP3 SWAP2 POP POP JUMP JUMPDEST PUSH0 PUSH0 REVERT JUMPDEST PUSH0 PUSH0 REVERT JUMPDEST PUSH0 PUSH1 0x1F NOT PUSH1 0x1F DUP4 ADD AND SWAP1 POP SWAP2 SWAP1 POP JUMP JUMPDEST PUSH32 0x4E487B7100000000000000000000000000000000000000000000000000000000 PUSH0 MSTORE PUSH1 0x41 PUSH1 0x4 MSTORE PUSH1 0x24 PUSH0 REVERT JUMPDEST PUSH2 0x347 DUP3 PUSH2 0x301 JUMP JUMPDEST DUP2 ADD DUP2 DUP2 LT PUSH8 0xFFFFFFFFFFFFFFFF DUP3 GT OR ISZERO PUSH2 0x366 JUMPI PUSH2 0x365 PUSH2 0x311 JUMP JUMPDEST JUMPDEST DUP1 PUSH1 0x40 MSTORE POP POP POP JUMP JUMPDEST PUSH0 PUSH2 0x378 PUSH2 0x2B5 JUMP JUMPDEST SWAP1 POP PUSH2 0x384 DUP3 DUP3 PUSH2 0x33E JUMP JUMPDEST SWAP2 SWAP1 POP JUMP JUMPDEST PUSH0 PUSH8 0xFFFFFFFFFFFFFFFF DUP3 GT ISZERO PUSH2 0x3A3 JUMPI PUSH2 0x3A2 PUSH2 0x311 JUMP JUMPDEST JUMPDEST PUSH2 0x3AC DUP3 PUSH2 0x301 JUMP JUMPDEST SWAP1 POP PUSH1 0x20 DUP2 ADD SWAP1 POP SWAP2 SWAP1 POP JUMP JUMPDEST DUP3 DUP2 DUP4 CALLDATACOPY PUSH0 DUP4 DUP4 ADD MSTORE POP POP POP JUMP JUMPDEST PUSH0 PUSH2 0x3D9 PUSH2 0x3D4 DUP5 PUSH2 0x389 JUMP JUMPDEST PUSH2 0x36F JUMP JUMPDEST SWAP1 POP DUP3 DUP2 MSTORE PUSH1 0x20 DUP2 ADD DUP5 DUP5 DUP5 ADD GT ISZERO PUSH2 0x3F5 JUMPI PUSH2 0x3F4 PUSH2 0x2FD JUMP JUMPDEST JUMPDEST PUSH2 0x400 DUP5 DUP3 DUP6 PUSH2 0x3B9 JUMP JUMPDEST POP SWAP4 SWAP3 POP POP POP JUMP JUMPDEST PUSH0 DUP3 PUSH1 0x1F DUP4 ADD SLT PUSH2 0x41C JUMPI PUSH2 0x41B PUSH2 0x2F9 JUMP JUMPDEST JUMPDEST DUP2 CALLDATALOAD PUSH2 0x42C DUP5 DUP3 PUSH1 0x20 DUP7 ADD PUSH2 0x3C7 JUMP JUMPDEST SWAP2 POP POP SWAP3 SWAP2 POP POP JUMP JUMPDEST PUSH0 PUSH1 0xFF DUP3 AND SWAP1 POP SWAP2 SWAP1 POP JUMP JUMPDEST PUSH2 0x44A DUP2 PUSH2 0x435 JUMP JUMPDEST DUP2 EQ PUSH2 0x454 JUMPI PUSH0 PUSH0 REVERT JUMPDEST POP JUMP JUMPDEST PUSH0 DUP2 CALLDATALOAD SWAP1 POP PUSH2 0x465 DUP2 PUSH2 0x441 JUMP JUMPDEST SWAP3 SWAP2 POP POP JUMP JUMPDEST PUSH0 PUSH0 PUSH0 PUSH1 0x60 DUP5 DUP7 SUB SLT ISZERO PUSH2 0x482 JUMPI PUSH2 0x481 PUSH2 0x2BE JUMP JUMPDEST JUMPDEST PUSH0 PUSH2 0x48F DUP7 DUP3 DUP8 ADD PUSH2 0x2E5 JUMP JUMPDEST SWAP4 POP POP PUSH1 0x20 DUP5 ADD CALLDATALOAD PUSH8 0xFFFFFFFFFFFFFFFF DUP2 GT ISZERO PUSH2 0x4B0 JUMPI PUSH2 0x4AF PUSH2 0x2C2 JUMP JUMPDEST JUMPDEST PUSH2 0x4BC DUP7 DUP3 DUP8 ADD PUSH2 0x408 JUMP JUMPDEST SWAP3 POP POP PUSH1 0x40 PUSH2 0x4CD DUP7 DUP3 DUP8 ADD PUSH2 0x457 JUMP JUMPDEST SWAP2 POP POP SWAP3 POP SWAP3 POP SWAP3 JUMP JUMPDEST PUSH0 PUSH1 0x20 DUP3 DUP5 SUB SLT ISZERO PUSH2 0x4EC JUMPI PUSH2 0x4EB PUSH2 0x2BE JUMP JUMPDEST JUMPDEST PUSH0 PUSH2 0x4F9 DUP5 DUP3 DUP6 ADD PUSH2 0x2E5 JUMP JUMPDEST SWAP2 POP POP SWAP3 SWAP2 POP POP JUMP JUMPDEST PUSH0 DUP2 MLOAD SWAP1 POP SWAP2 SWAP1 POP JUMP JUMPDEST PUSH0 DUP3 DUP3 MSTORE PUSH1 0x20 DUP3 ADD SWAP1 POP SWAP3 SWAP2 POP POP JUMP JUMPDEST DUP3 DUP2 DUP4 MCOPY PUSH0 DUP4 DUP4 ADD MSTORE POP POP POP JUMP JUMPDEST PUSH0 PUSH2 0x534 DUP3 PUSH2 0x502 JUMP JUMPDEST PUSH2 0x53E DUP2 DUP6 PUSH2 0x50C JUMP JUMPDEST SWAP4 POP PUSH2 0x54E DUP2 DUP6 PUSH1 0x20 DUP7 ADD PUSH2 0x51C JUMP JUMPDEST PUSH2 0x557 DUP2 PUSH2 0x301 JUMP JUMPDEST DUP5 ADD SWAP2 POP POP SWAP3 SWAP2 POP POP JUMP JUMPDEST PUSH2 0x56B DUP2 PUSH2 0x435 JUMP JUMPDEST DUP3 MSTORE POP POP JUMP JUMPDEST PUSH0 PUSH1 0x40 DUP3 ADD SWAP1 POP DUP2 DUP2 SUB PUSH0 DUP4 ADD MSTORE PUSH2 0x589 DUP2 DUP6 PUSH2 0x52A JUMP JUMPDEST SWAP1 POP PUSH2 0x598 PUSH1 0x20 DUP4 ADD DUP5 PUSH2 0x562 JUMP JUMPDEST SWAP4 SWAP3 POP POP POP JUMP JUMPDEST PUSH32 0x4E487B7100000000000000000000000000000000000000000000000000000000 PUSH0 MSTORE PUSH1 0x22 PUSH1 0x4 MSTORE PUSH1 0x24 PUSH0 REVERT JUMPDEST PUSH0 PUSH1 0x2 DUP3 DIV SWAP1 POP PUSH1 0x1 DUP3 AND DUP1 PUSH2 0x5E3 JUMPI PUSH1 0x7F DUP3 AND SWAP2 POP JUMPDEST PUSH1 0x20 DUP3 LT DUP2 SUB PUSH2 0x5F6 JUMPI PUSH2 0x5F5 PUSH2 0x59F JUMP JUMPDEST JUMPDEST POP SWAP2 SWAP1 POP JUMP JUMPDEST PUSH0 DUP2 SWAP1 POP DUP2 PUSH0 MSTORE PUSH1 0x20 PUSH0 KECCAK256 SWAP1 POP SWAP2 SWAP1 POP JUMP JUMPDEST PUSH0 PUSH1 0x20 PUSH1 0x1F DUP4 ADD DIV SWAP1 POP SWAP2 SWAP1 POP JUMP JUMPDEST PUSH0 DUP3 DUP3 SHL SWAP1 POP SWAP3 SWAP2 POP POP JUMP JUMPDEST PUSH0 PUSH1 0x8 DUP4 MUL PUSH2 0x658 PUSH32 0xFFFFFFFFFFFFFFFFFFFFFFFFFFFFFFFFFFFFFFFFFFFFFFFFFFFFFFFFFFFFFFFF DUP3 PUSH2 0x61D JUMP JUMPDEST PUSH2 0x662 DUP7 DUP4 PUSH2 0x61D JUMP JUMPDEST SWAP6 POP DUP1 NOT DUP5 AND SWAP4 POP DUP1 DUP7 AND DUP5 OR SWAP3 POP POP POP SWAP4 SWAP3 POP POP POP JUMP JUMPDEST PUSH0 DUP2 SWAP1 POP SWAP2 SWAP1 POP JUMP JUMPDEST PUSH0 PUSH2 0x69D PUSH2 0x698 PUSH2 0x693 DUP5 PUSH2 0x2C6 JUMP JUMPDEST PUSH2 0x67A JUMP JUMPDEST PUSH2 0x2C6 JUMP JUMPDEST SWAP1 POP SWAP2 SWAP1 POP JUMP JUMPDEST PUSH0 DUP2 SWAP1 POP SWAP2 SWAP1 POP JUMP JUMPDEST PUSH2 0x6B6 DUP4 PUSH2 0x683 JUMP JUMPDEST PUSH2 0x6CA PUSH2 0x6C2 DUP3 PUSH2 0x6A4 JUMP JUMPDEST DUP5 DUP5 SLOAD PUSH2 0x629 JUMP JUMPDEST DUP3 SSTORE POP POP POP POP JUMP JUMPDEST PUSH0 PUSH0 SWAP1 POP SWAP1 JUMP JUMPDEST PUSH2 0x6E1 PUSH2 0x6D2 JUMP JUMPDEST PUSH2 0x6EC DUP2 DUP5 DUP5 PUSH2 0x6AD JUMP JUMPDEST POP POP POP JUMP JUMPDEST JUMPDEST DUP2 DUP2 LT ISZERO PUSH2 0x70F JUMPI PUSH2 0x704 PUSH0 DUP3 PUSH2 0x6D9 JUMP JUMPDEST PUSH1 0x1 DUP2 ADD SWAP1 POP PUSH2 0x6F2 JUMP JUMPDEST POP POP JUMP JUMPDEST PUSH1 0x1F DUP3 GT ISZERO PUSH2 0x754 JUMPI PUSH2 0x725 DUP2 PUSH2 0x5FC JUMP JUMPDEST PUSH2 0x72E DUP5 PUSH2 0x60E JUMP JUMPDEST DUP2 ADD PUSH1 0x20 DUP6 LT ISZERO PUSH2 0x73D JUMPI DUP2 SWAP1 POP JUMPDEST PUSH2 0x751 PUSH2 0x749 DUP6 PUSH2 0x60E JUMP JUMPDEST DUP4 ADD DUP3 PUSH2 0x6F1 JUMP JUMPDEST POP POP JUMPDEST POP POP POP JUMP JUMPDEST PUSH0 DUP3 DUP3 SHR SWAP1 POP SWAP3 SWAP2 POP POP JUMP JUMPDEST PUSH0 PUSH2 0x774 PUSH0 NOT DUP5 PUSH1 0x8 MUL PUSH2 0x759 JUMP JUMPDEST NOT DUP1 DUP4 AND SWAP2 POP POP SWAP3 SWAP2 POP POP JUMP JUMPDEST PUSH0 PUSH2 0x78C DUP4 DUP4 PUSH2 0x765 JUMP JUMPDEST SWAP2 POP DUP3 PUSH1 0x2 MUL DUP3 OR SWAP1 POP SWAP3 SWAP2 POP POP JUMP JUMPDEST PUSH2 0x7A5 DUP3 PUSH2 0x502 JUMP JUMPDEST PUSH8 0xFFFFFFFFFFFFFFFF DUP2 GT ISZERO PUSH2 0x7BE JUMPI PUSH2 0x7BD PUSH2 0x311 JUMP JUMPDEST JUMPDEST PUSH2 0x7C8 DUP3 SLOAD PUSH2 0x5CC JUMP JUMPDEST PUSH2 0x7D3 DUP3 DUP3 DUP6 PUSH2 0x713 JUMP JUMPDEST PUSH0 PUSH1 0x20 SWAP1 POP PUSH1 0x1F DUP4 GT PUSH1 0x1 DUP2 EQ PUSH2 0x804 JUMPI PUSH0 DUP5 ISZERO PUSH2 0x7F2 JUMPI DUP3 DUP8 ADD MLOAD SWAP1 POP JUMPDEST PUSH2 0x7FC DUP6 DUP3 PUSH2 0x781 JUMP JUMPDEST DUP7 SSTORE POP PUSH2 0x863 JUMP JUMPDEST PUSH1 0x1F NOT DUP5 AND PUSH2 0x812 DUP7 PUSH2 0x5FC JUMP JUMPDEST PUSH0 JUMPDEST DUP3 DUP2 LT ISZERO PUSH2 0x839 JUMPI DUP5 DUP10 ADD MLOAD DUP3 SSTORE PUSH1 0x1 DUP3 ADD SWAP2 POP PUSH1 0x20 DUP6 ADD SWAP5 POP PUSH1 0x20 DUP2 ADD SWAP1 POP PUSH2 0x814 JUMP JUMPDEST DUP7 DUP4 LT ISZERO PUSH2 0x856 JUMPI DUP5 DUP10 ADD MLOAD PUSH2 0x852 PUSH1 0x1F DUP10 AND DUP3 PUSH2 0x765 JUMP JUMPDEST DUP4 SSTORE POP JUMPDEST PUSH1 0x1 PUSH1 0x2 DUP9 MUL ADD DUP9 SSTORE POP POP POP JUMPDEST POP POP POP POP POP POP JUMP INVALID LOG2 PUSH5 0x6970667358 0x22 SLT KECCAK256 DUP15 0xA7 BALANCE PREVRANDAO DATALOADN 0xA7CE RJUMP 0x36F1 EXP DUP5 PUSH20 0x782F1016D6EA0CB4A20CFB7FC10FD044939864 PUSH20 0x6F6C634300081F00330000000000000000000000 "
				},
				"gasEstimates": {
					"creation": {
						"codeDepositCost": "441800",
						"executionCost": "478",
						"totalCost": "442278"
					},
					"external": {
						"addOrUpdateGrade(uint256,string,uint8)": "infinite",
						"getGrade(uint256)": "infinite",
						"grades(uint256)": "infinite"
					}
				},
				"methodIdentifiers": {
					"addOrUpdateGrade(uint256,string,uint8)": "386e6dca",
					"getGrade(uint256)": "e1e0485e",
					"grades(uint256)": "4b22fc62"
				}
			},
			"storageLayout": {
				"storage": [
					{
						"astId": 11,
						"contract": "contracts/StudentGrades.sol:StudentGrades",
						"label": "grades",
						"offset": 0,
						"slot": "0",
						"type": "t_mapping(t_uint256,t_struct(Subject)6_storage)"
					}
				],
				"types": {
					"t_mapping(t_uint256,t_struct(Subject)6_storage)": {
						"encoding": "mapping",
						"key": "t_uint256",
						"label": "mapping(uint256 => struct StudentGrades.Subject)",
						"numberOfBytes": "32",
						"value": "t_struct(Subject)6_storage"
					},
					"t_string_storage": {
						"encoding": "bytes",
						"label": "string",
						"numberOfBytes": "32"
					},
					"t_struct(Subject)6_storage": {
						"encoding": "inplace",
						"label": "struct StudentGrades.Subject",
						"members": [
							{
								"astId": 3,
								"contract": "contracts/StudentGrades.sol:StudentGrades",
								"label": "subjectName",
								"offset": 0,
								"slot": "0",
								"type": "t_string_storage"
							},
							{
								"astId": 5,
								"contract": "contracts/StudentGrades.sol:StudentGrades",
								"label": "grade",
								"offset": 0,
								"slot": "1",
								"type": "t_uint8"
							}
						],
						"numberOfBytes": "64"
					},
					"t_uint256": {
						"encoding": "inplace",
						"label": "uint256",
						"numberOfBytes": "32"
					},
					"t_uint8": {
						"encoding": "inplace",
						"label": "uint8",
						"numberOfBytes": "1"
					}
				}
			},
			"userdoc": {
				"kind": "user",
				"methods": {},
				"version": 1
			}
		}
	}
}